:020000042001D9
:100000009711FF5F9381012B970200009382820179
:100010007390523093021000638402007350107C7E
:10002000970200009382C211739052301701FFDFD4
:10003000130141FD63140100138101CF732540F1C9
:10004000814213030020137101FF6385A2001A91FE
:100050008502D5BF970000009380200863830000CD
:100060008290732540F181450146FD209700FFDF16
:10007000938040F96383000082909702000093828E
:10008000C2007390523003230000F5BF000000004F
:100090008280A14673B306309302400063C55500C9
:1000A0001376350011CA230005000505FD15E34749
:1000B000B0FE731003308280232005001105F11576
:1000C000E34EB0FC73100330828023200300110341
:1000D000E34D73FE828006849702FFDF938282F2F3
:1000E000638C02049702FFDF9382C2F1F32740F191
:1000F000A14673B006300A839703FFDF9383831012
:100100008A9363037300D137639857021703FF5F25
:10011000130343EF9713FF5F9383439F63037300BE
:100120006D371703FFE71303E3ED9703FFE79383AF
:1001300063ED63037300513FA2808280F322203479
:1001400073231034F3233034D5BF411122C6000885
:10015000010032444101828006849711FF5F938140
:100160006115930200006311550E97A2000093825F
:1001700062CB1703FF5F1303E3E89713FF5F9383DB
:10018000E398638C6200635A730003A50200910236
:100190002320A3001103E34A73FE97120000938209
:1001A00062F91703FFE71303E3E59703FFE7938380
:1001B00063E5638C6200635A730003A50200910239
:1001C0002320A3001103E34A73FE0F1000009712CF
:1001D0000000938222F61703FF5F1303A3E2970345
:1001E000FF5F938323E2638C6200635A730003A56D
:1001F000020091022320A3001103E34A73FE0F10B3
:1002000000001713FF5F13036390938301AF6357DD
:100210007300232003001103E34D73FE1712FF5FE9
:100220001302C28E11C2029617A500001305E581C4
:10023000EF90407DEF90B00417A500001305E5B9DD
:10024000EF90407CEF90D0370937FD5673B04630C1
:1002500073B04634F3271030372704007D8F09C769
:1002600073B0363073B02630370704007D8F19C362
:1002700073B006183707010013078702F98F89CB7F
:10028000F32700300967D98F73900730735030001F
:10029000F327103037072000F98F99C7F327003074
:1002A00093E7072073900730054597150000938565
:1002B000E5CC171600001306A6CC3120EF90E075B0
:1002C000A28082808280411106C2F32240F1130392
:1002D00000006385620073005010F5BFEF0050729C
:0602E00092404101828002
:1002E800DE130120000301202C0301205603012006
:1002F8000000000000000000011106CE22CC001012
:10030800EF40A0152326A4FE8327C4FE99C7B7177C
:100318000080138507AAEF40C01C0100F240624428
:1003280005618280011106CE22CC0010EF40E01258
:100338002326A4FE8325C4FEB7170080138507AAC9
:10034800EF5070450100F24062440561828041111E
:1003580006C622C40008F16793850720B7170080F6
:10036800138587A4EF50D07F0100B2402244410199
:02037800828081
:10037C00726561645F736874323000004174206C84
:10038C0065617374206F6E65206F66204C454473F5
:10039C00206973206E756C6C2E0A00007265640007
:1003AC004C443000677265656E000000626C7565C8
:1003BC00000000004552524F5220537461636B2071
:1003CC006F766572666C6F77206F6E2066756E63E4
:1003DC003A2000004E6F2045787465726E616C2077
:1003EC00636F6E74726F6C6C65720A00201A012058
:1003FC00C61B0120AA1B0120000000000000000009
:10040C00B41E0120E81E0120A81A0120821B012025
:10041C001E1C0120D01C0120000000000000000068
:10042C0000000000000000000000000000000000C0
:10043C000000000000000000821D01205419012062
:10044C0000000000000000000000000000000000A0
:10045C002A3001201C300120F02F0120F02F012028
:10046C0006300120E43001204A3101204A310120BC
:10047C00F63001204A3101204A3101204A31012055
:10048C00083101204A3101204A3101204A31012032
:10049C001A3101204A3101204A3101204A31012010
:1004AC004A3101202C3101202C3101202C3101202A
:1004BC002C3101202C3101202C3101202C31012038
:1004CC002C3101202C3101202C3101202C31012028
:1004DC002C3101202C3101202C3101202C31012018
:1004EC002C310120AC310120D4340120B83401204E
:1004FC0000000000000000000000000000000000F0
:10050C008E32012000000000643401208E34012062
:10051C0000000000000000000000000000000000CF
:10052C0000000000000000000000000000000000BF
:10053C002835012000000000000000000000000031
:10054C00000000000000000044350120B6350120F9
:10055C00FC35012062360120D8360120F23601200C
:10056C00063701202037012034370120963701202F
:10057C00F83701205838012078380120BE38012086
:10058C00EC3801200A3901202A390120243D0120B0
:10059C00000000000000000000000000000000004F
:1005AC000000000000000000743E0120000000006C
:1005BC00323F0120803F01200000000000000000BD
:1005CC00FE3F0120CE3F0120923B0120303B012019
:1005DC00000000000000000000000000000000000F
:1005EC0026400120C24001205E410120D241012061
:1005FC000100000020000000001BB70000366E0157
:10060C00010000001F000000030000003F0000007C
:10061C00010000002000000000366E01006CDC02BE
:10062C00030000001F000000020000003F0000005B
:10063C000100000010000000808D5B00001BB70063
:10064C00000000001F000000030000003F0000003D
:10065C000100000010000000001BB70000366E0106
:10066C00010000001F000000020000003F0000001D
:10067C00010000001000000000366E01006CDC026E
:10068C00030000001F000000020000001F0000001B
:10069C000100000008000000808D5B00001BB7000B
:1006AC00000000001F000000030000001F000000FD
:1006BC000100000008000000001BB70000366E01AE
:1006CC00010000001F000000020000001F000000DD
:1006DC00010000000800000000366E01006CDC0216
:1006EC00030000001F000000020000000F000000CB
:1006FC000100000004000000808D5B00001BB700AF
:10070C00000000001F000000030000000F000000AC
:10071C000100000004000000001BB70000366E0151
:10072C00010000001F000000020000000F0000008C
:10073C00010000000400000000366E01006CDC02B9
:10074C00030000001F000000020000000700000072
:10075C000100000002000000808D5B00001BB70050
:10076C00000000001F000000020000000F0000004D
:10077C000100000002000000001BB70000366E01F3
:10078C00010000001F000000010000000F0000002D
:10079C00010000000200000000366E01006CDC025B
:1007AC00030000001F000000010000000700000013
:1007BC000200000001000000808D5B00001BB700F0
:1007CC00000000001F0000000100000007000000F6
:1007DC000200000001000000001BB70000366E0193
:1007EC00010000001F0000000100000003000000D9
:1007FC00020000000100000000366E01006CDC02FB
:10080C00030000001F00000003000000FFFFFFFFBB
:10081C000400000001000000808D5B00001BB7008D
:10082C00000000001F00000003000000000000009A
:10083C000400000001000000001BB70000366E0130
:10084C00010000001F00000003000000FFFFFFFF7D
:10085C00040000000100000000366E01006CDC0298
:10086C00030000001F00000002000000FFFFFFFF5C
:10087C000600000001000000808D5B00AAC2A200EF
:10088C000000000023000000010000000200000036
:10089C000600000001000000AAC2A200001BB70065
:1008AC00000000001700000003000000FFFFFFFF26
:1008BC000600000001000000001BB7000024F4003B
:1008CC00010000002F00000003000000FFFFFFFFED
:1008DC0006000000010000000024F40080A81201B2
:1008EC00010000001700000002000000FFFFFFFFE6
:1008FC00060000000100000080A81201558545018A
:10090C00020000002300000002000000FFFFFFFFB8
:10091C000800000001000000808D5B00001BB70088
:10092C00000000001F00000003000000FFFFFFFF9D
:10093C000800000001000000001BB70000366E012B
:10094C00010000001F00000002000000FFFFFFFF7D
:10095C00080000000100000000366E01006CDC0293
:10096C00030000001F00000001000000FFFFFFFF5C
:10097C000A00000001000000808D5B00007C9200EA
:10098C00000000002700000003000000FFFFFFFF35
:10099C000A00000001000000007C9200001BB70060
:1009AC00000000001300000002000000FFFFFFFF2A
:1009BC000A00000001000000001BB70000F8240131
:1009CC00010000002700000002000000FFFFFFFFF5
:1009DC000A0000000100000000F8240100366E013E
:1009EC00010000001300000001000000FFFFFFFFEA
:1009FC000A0000000100000000366E0100F0490200
:100A0C00030000002700000001000000FFFFFFFFB3
:100A1C000C00000001000000808D5B0000127A00C9
:100A2C00000000002F00000003000000FFFFFFFF8C
:100A3C000C0000000100000000127A00001BB7003F
:100A4C00000000001700000002000000FFFFFFFF85
:100A5C000C00000001000000001BB7000024F40093
:100A6C00010000002F00000002000000FFFFFFFF4C
:100A7C000C000000010000000024F40000366E01A0
:100A8C00010000001700000001000000FFFFFFFF45
:100A9C000C0000000100000000366E0180C3C9018B
:100AAC00030000002F00000001000000FFFFFFFF0B
:100ABC000C0000000100000080C3C9010048E801DF
:100ACC00030000002F00000001000000FFFFFFFFEB
:100ADC000E00000001000000808D5B00B6A16800D4
:100AEC00000000003700000003000000FFFFFFFFC4
:100AFC000E00000001000000B7A16800001BB70049
:100B0C00000000001B00000002000000FFFFFFFFC0
:100B1C000E00000001000000001BB7006D43D10067
:100B2C00010000003700000002000000FFFFFFFF83
:100B3C000E000000010000006E43D10000366E0173
:100B4C00010000001B00000001000000FFFFFFFF80
:100B5C000E0000000100000000366E01DB86A201D1
:100B6C00030000003700000001000000FFFFFFFF42
:100B7C001000000001000000808D5B00001BB7001E
:100B8C00000000001F00000002000000FFFFFFFF3C
:100B9C001000000001000000001BB70000366E01C1
:100BAC00010000001F00000001000000FFFFFFFF1C
:100BBC001200000001000000808D5B00AAC2A200A0
:100BCC00000000002300000002000000FFFFFFFFF8
:100BDC001200000001000000ABC2A200001BB70015
:100BEC00000000001100000001000000FFFFFFFFEB
:100BFC001200000001000000001BB70055854501E4
:100C0C00010000002300000001000000FFFFFFFFB7
:100C1C001400000001000000808D5B00007C92003D
:100C2C00000000002700000002000000FFFFFFFF93
:100C3C001400000001000000007C9200001BB700B3
:100C4C00000000001300000001000000FFFFFFFF88
:100C5C001400000001000000001BB70000F8240184
:100C6C00010000002700000001000000FFFFFFFF53
:100C7C001600000001000000808D5B00E82A850052
:100C8C00000000002B00000002000000FFFFFFFF2F
:100C9C001600000001000000E92A8500001BB700C7
:100CAC00000000001500000001000000FFFFFFFF26
:100CBC001600000001000000001BB700D1550A010E
:100CCC00010000002B00000001000000FFFFFFFFEF
:100CDC001800000001000000808D5B0000127A00FB
:100CEC00000000002F00000002000000FFFFFFFFCB
:100CFC00180000000100000000127A00001BB70071
:100D0C00000000001700000001000000FFFFFFFFC3
:100D1C001800000001000000001BB7000024F400C4
:100D2C00010000002F00000001000000FFFFFFFF8A
:100D3C001A00000001000000808D5B0027AE7000DF
:100D4C00000000003300000002000000FFFFFFFF66
:100D5C001A0000000100000028AE7000001BB70054
:100D6C00000000001900000001000000FFFFFFFF61
:100D7C001A00000001000000001BB7006658E100DB
:100D8C00010000003300000001000000FFFFFFFF26
:100D9C001C00000001000000808D5B00B6A1680003
:100DAC00000000003700000002000000FFFFFFFF02
:100DBC001C00000001000000B7A16800001BB70078
:100DCC00000000001B00000001000000FFFFFFFFFF
:100DDC001C00000001000000001BB7006D43D10097
:100DEC00010000003700000001000000FFFFFFFFC2
:100DFC001E00000001000000808D5B0000A8610057
:100E0C00000000003B00000002000000FFFFFFFF9D
:100E1C001E0000000100000000A86100001BB700CC
:100E2C00000000001D00000001000000FFFFFFFF9C
:100E3C001E00000001000000001BB7000050C300A2
:100E4C00010000003B00000001000000FFFFFFFF5D
:100E5C002000000001000000808D5B00001BB7002B
:100E6C00000000001F00000001000000FFFFFFFF5A
:100E7C00EA4401208E450120544901204C44307233
:100E8C00656400004C4430677265656E00000000BC
:100E9C004C4430626C75650000000000184C012059
:100EAC004E4C0120964C0120D44C0120124D0120B7
:100EBC001254012090540120A8540120C454012044
:100ECC0012550120F65401202E55012064550120A5
:100EDC005257012018560120305601204C56012043
:100EEC009A5601207E560120B6560120EC56012060
:100EFC003C510120FC50012082510120AC510120B9
:100F0C00D85101201E5201205E5201209E52012018
:100F1C00E45201202453012086530120D053012098
:100F2C00D65501205E5701207E570120145E01200A
:100F3C00B85B0120945A0120F85B01204E5C012023
:100F4C006E5C01207459012092590120B059012086
:100F5C00EA590120225A01205C5A0120C45A01206E
:100F6C000E5B01203E5B0120885B0120800F01207D
:100F7C00000000006C6962676C6F73730000000006
:100F8C0049444C4500000000546D722053766300B8
:100F9C00546D725100000000A2880120A28801202B
:100FAC00A288012018890120308901207289012032
:100FBC00A2880120A28801201889012030890120F3
:100FCC000000000000000000000000000000000015
:100FDC000000000000000000000000000000000005
:100FEC0000000000000000000000000000000000F5
:100FFC0000000000000000000000000000000000E5
:10100C0000000000000000000000000000000000D4
:10101C0000000000000000000000000000000000C4
:10102C000001020203030303040404040404040483
:10103C000505050505050505050505050505050554
:10104C000606060606060606060606060606060634
:10105C000606060606060606060606060606060624
:10106C000707070707070707070707070707070704
:10107C0007070707070707070707070707070707F4
:10108C0007070707070707070707070707070707E4
:10109C0007070707070707070707070707070707D4
:1010AC0008080808080808080808080808080808B4
:1010BC0008080808080808080808080808080808A4
:1010CC000808080808080808080808080808080894
:1010DC000808080808080808080808080808080884
:1010EC000808080808080808080808080808080874
:1010FC000808080808080808080808080808080864
:10110C000808080808080808080808080808080853
:10111C000808080808080808080808080808080843
:04112C0000000000BF
:10120000411106C622C400088D280D4681450545BA
:10121000EF50C0472A8723ACE1A8814709478146A0
:1012200013060010B70501209385C5373715012037
:1012300013058524EF608004EF60603B81473E85A5
:10124000B240224441018280011106CE22CC00101E
:101250002326A4FE83A781A9A9453E85EF50300A25
:101260002A878547E318F7FE83A781A981460146AF
:1012700081453E85EF50A050F1BF011106CE22CC32
:101280000010B7070120938787382326F4FEB7079D
:1012900001209385873AB70701201385C73AEF509D
:1012A00060022A8723A8E1A8B70701209385073B9E
:1012B000B70701201385C73AEF50C0002A8723A63D
:1012C000E1A8B70701209385873BB7070120138565
:1012D000C73AEF40307F2A8723A4E1A883A701A95A
:1012E00099C783A7C1A881C783A781A899EB0325C4
:1012F000C4FE112EAA873E868325C4FE0545292EED
:101300003DA883A701A93E85EF40107583A7C1A81A
:101310003E85EF40707483A781A83E85EF40D0736F
:1013200083A701A93E85EF40707583A7C1A83E85BC
:10133000EF40D07483A781A83E85EF403074010050
:10134000F240624405618280411106C622C4000851
:101350007370043083A701A991C783A701A93E85B3
:10136000EF4010740545EF50A01C011106CE22CCB1
:1013700000102326A4FE2324B4FE737004307946A3
:10138000B70701209385073C05457924032584FE92
:101390009D2CAA873E86832584FE0545B52C83A710
:1013A00001A991C783A701A93E85EF40706F05454C
:1013B000EF500018011122CE00102326A4FE0327AF
:1013C000C4FE938741816317F700B70700809387B6
:1013D000070A11A081473E85724405618280011190
:1013E00006CE22CC0010B70701209387073E2326A4
:1013F000F4FEEF40904AAA873E85EF403047232411
:10140000A4FE832784FEB9CF032584FEEF40B043BA
:101410002322A4FE832744FEA1CB032544FEEF40F4
:10142000F05B81450D45EF40B05D2320A4FE83278E
:1014300004FE99EB0325C4FEF922AA873E86832584
:10144000C4FE0545D12A01A0032504FEEF40105932
:101450009387012B3E85EF70A06DAA8799C77D55B4
:10146000EF50000D010011A00100F240624405613F
:101470008280397106DE22DC8000F32640F173277A
:101480002034F32750302326D4FE2324E4FE2322E5
:10149000F4FEB71700800327C4FE0A07938707AB43
:1014A000BA979C432320F4FE832704FEE1C303255F
:1014B00004FE0937232EA4FC832784FE93F7F73F0D
:1014C000232CF4FC032784FDBD4763D7E700832763
:1014D00044FE93F7F703B9EB8326C4FD032784FD8D
:1014E000BA878607BA978E07B69783A787092328F6
:1014F000F4FC8326C4FD032784FDBA878607BA97C8
:101500008E07B69783A70709A5C78326C4FD0327BF
:1015100084FDBA878607BA978E07B69783A707090F
:10152000832504FD032584FD829799A0832744FE2B
:1015300013F7F7038947631BF702F3277030232A59
:10154000F4FC8327C4FD83A7C70D2328F4FC83275D
:1015500044FD2326F4FC8327C4FC89CF8327C4FCE5
:10156000832504FD032584FD829729A0010021A085
:10157000010011A001000100F2506254216182803B
:10158000797106D622D40018F32740F12326F4FE01
:10159000B71700800327C4FE0A07938707ABBA97E3
:1015A0009C432324F4FE832784FEA9CF032584FED5
:1015B00011352322A4FEF32720342320F4FE8327B1
:1015C00004FE93F7F73F232EF4FC0327C4FD9D4749
:1015D00063CAE702032744FE8327C4FD9387870E6F
:1015E0008A07BA979C4399CF032744FE8327C4FDFB
:1015F0009387870E8A07BA979C438325C4FD0325EA
:1016000084FE829701A0AA87850703C7F7FF6DFFB5
:101610003385A7407D15828097F7FE5F9387C74982
:10162000B2862E86AA85884309A0411122C42A8445
:101630002E85B285368623A201AA06C6EF40907099
:10164000FD576317F500938741AA9C4391C31CC0C3
:10165000B2402244410182802A8311C62300B30094
:101660007D16050365FE828082808280411122C43E
:101670002E848C4126C206C6AA8491C1C53FA2858C
:101680002244B240268592444101D9A097F7FE5FDB
:10169000938787429C43638CA70A5C51011122CC3B
:1016A00006CE26CA4AC84EC62A8499CBDC47814456
:1016B00013090008ADEB5C508C4399C12285492881
:1016C0004C4899C1228569204C5099C122854920F6
:1016D0000C5C99C12285AD284C5C99C122858D286E
:1016E0002C4099C12285AD206C4C99C122858D205A
:1016F0002C4C99C12285A9284C5899C1228589284A
:101700001C4C9DCF1C54228582972C4495C9228560
:101710006244F240D2444249B249056181BFA69574
:101720008C4189E991045C50CC47E39A24FF2285DF
:10173000052051B783A9050022851928CE85D5B784
:10174000F2406244D2444249B249056182808280BB
:10175000CDC583A7C5FF411122C406C626C2138486
:10176000C5FF63D307003E94AA84FD3D97F7FE5F53
:101770009387C7399C4389EF2322040097F7FE5FC4
:1017800023A687382244B240268592444101F1BD08
:10179000637EF40014403307D4006396E700984357
:1017A000DC43369718C05CC0D1BFBA87D84319C391
:1017B000E37DE4FE94433386D700631F8600104028
:1017C000B29694C33386D700E31EC7FA104358433A
:1017D000B29694C3D8C37DB76375C400B1479CC0AB
:1017E00055B71040B306C4006316D70014435843DE
:1017F000B29614C058C0C0C371B78280011122CE06
:1018000000102326A4FE0327C4FEB7170080938789
:10181000C7AB6315F700B707000211A081473E85EB
:10182000724405618280011122CE00102326A4FE9D
:101830000327C4FEB71700809387C7AB6314F70074
:10184000894711A081473E8572440561828001115C
:1018500022CE00102326A4FE2324B4FE832784FE78
:1018600091E7B70700809387070A21A8032784FE22
:1018700085476317F700B70700809387070A11A011
:1018800081473E85724405618280011122CE00109D
:101890002326A4FE2324B4FE832784FE99E38D47E8
:1018A00009A8032784FE85476314F7009D4711A00C
:1018B00081473E857244056182805D7186C6A2C4FF
:1018C000CAC2CEC052DE56DC5ADA5ED862D666D4C0
:1018D0008008232EA4FA8327C4FB3E8505372326E0
:1018E000A4FC0327C4FCB167F117BA979C432324D7
:1018F000F4FC0327C4FCB167E117BA979C43232289
:10190000F4FC0327C4FCB167F117BA979C43032783
:1019100084FCE318F7FC832784FC3E8C814C9319EC
:101920000C000149832744FC3E8A814A336B4901FC
:10193000B3EB5901DA875E883E85C285B6402644FE
:1019400016498649725AE25A525BC25B325CA25C0B
:1019500061618280797106D622D44AD24ED00018B5
:10196000232EA4FC232CB4FC2328C4FC232AD4FC5F
:101970008327C4FD2326F4FE8327C4FE3E85BD3D98
:101980002324A4FE832784FD8E073E87832784FEBD
:101990003E9791679107BA973E87FD571CC38327EF
:1019A00084FD8E073E87832784FE3E979167BA9712
:1019B0003E87832704FD1CC3832744FD13D90700FA
:1019C0008149832784FD8E073E87832784FE3E97C7
:1019D00091679107BA974A8798C381473E85B2506D
:1019E00022541259825945618280011106CE22CCBF
:1019F0000010232604FEF32740F12326F4FE83275C
:101A0000C4FE3E85EF4080662324A4FE032584FEA9
:101A1000EF406063AA873E85F240624405618280A0
:101A2000397106DE22DC80002326A4FC0325C4FCD9
:101A3000DD3B2324A4FE8327C4FC2322F4FE83275A
:101A400044FEDC43A9EF232604FE81A08325C4FEC7
:101A50000325C4FCED3B2320A4FE8325C4FE0325FF
:101A6000C4FC2535232EA4FC832704FE9C43DC4FB5
:101A70008326C4FC01468325C4FD032504FE82970A
:101A80008327C4FE85072326F4FE0327C4FE83278D
:101A900084FEE34DF7FA832744FE0547D8C30100CF
:101AA000F250625421618280397106DE22DC8000AE
:101AB0002326A4FC2324B4FC2322C4FC2320D4FC2E
:101AC000FD572326F4FEEF1000492320A4FE232413
:101AD00004FE213F232EA4FC0325C4FCA933232CA0
:101AE000A4FC032704FE85476308F700832704FE50
:101AF00081C78327C4FE49A0232204FE91A0832529
:101B000044FE0325C4FC5133232AA4FC832544FE50
:101B10000325C4FC2D3B2324A4FE0327C4FD8327F7
:101B200084FE6318F700032784FC832744FD6300C9
:101B3000F702232404FE832744FE85072322F4FEB4
:101B4000032744FE832784FDE34BF7FA11A001002D
:101B5000832784FE85C3832784FE9C43DC4F832632
:101B600004FC032644FC832584FC032584FE829721
:101B70002326A4FE8327C4FE3E85F25062542161D1
:101B80008280797122D60018232EA4FC232CB4FC69
:101B9000232AC4FC2328D4FCFD572326F4FE8327E4
:101BA000C4FE3E85325445618280011106CE22CCAE
:101BB00000102326A4FEEF10003AAA873E85F240CB
:101BC000624405618280797106D622D40018232EE2
:101BD000A4FC232CB4FCFD572326F4FE3935232422
:101BE000A4FE832784FE95C3032784FD854763E015
:101BF000E702832784FE9C43DC43832584FD032581
:101C000084FE82972326A4FE21A0010011A00100DA
:101C10008327C4FE3E85B2502254456182803971CB
:101C200006DE22DC80002326A4FC2324B4FCFD571E
:101C30002326F4FE832784FCC9C7232404FE7533BE
:101C40002320A4FE0325C4FCF93E232EA4FC23225A
:101C500004FE91A0832544FE0325C4FC3D31232CC2
:101C6000A4FC832544FE0325C4FCD5362324A4FE0E
:101C7000032704FE832784FE6318F700032784FCF0
:101C8000832784FD6300F702232404FE832744FE98
:101C900085072322F4FE032744FE8327C4FDE34B7C
:101CA000F7FA11A00100832784FE81CF832784FEE9
:101CB0009C43DC53832584FC032584FE82972326E2
:101CC000A4FE8327C4FE3E85F250625421618280C7
:101CD000397106DE22DC80002326A4FC2324B4FC18
:101CE000FD572326F4FE832784FCC9C7232404FE62
:101CF000ED392320A4FE0325C4FC3536232EA4FC95
:101D0000232204FE91A0832544FE0325C4FCB53E96
:101D1000232CA4FC832544FE0325C4FC0D3E232470
:101D2000A4FE032704FE832784FE6318F70003271D
:101D300084FC832784FD6300F702232404FE8327A9
:101D400044FE85072322F4FE032744FE8327C4FDB7
:101D5000E34BF7FA11A00100832784FE81CF83278C
:101D600084FE9C439C57832584FC032584FE829734
:101D70002326A4FE8327C4FE3E85F25062542161CF
:101D80008280797106D622D40018232EA4FC232C3D
:101D9000B4FC232AC4FCFD572326F4FE8327C4FD8C
:101DA0002324F4FE0325C4FD913C2322A4FE032733
:101DB00084FD89476308F704032784FD894763C8C6
:101DC000E700032784FD8547630EF700E9A8032792
:101DD00084FD8D47630CF704032784FD9147630856
:101DE000F708D1A0832744FDC5CB032584FEF13439
:101DF000AA872E88032744FD1CC32322070123261C
:101E000004FE59A8832744FDD1CB832744FD9C437E
:101E10002320F4FE832704FE8A073E87832744FE9F
:101E2000BA9723A00700232604FE8DA8832744FD2C
:101E3000A5CB832744FD9C432320F4FE832704FE87
:101E40008A073E87832744FEBA973E8785471CC38F
:101E50000F008004832704FE8A073E87832744FE01
:101E6000BA979C432326F4FE232604FE15A82326B6
:101E700004FE832744FD9DC7832744FD9C43232004
:101E8000F4FE832704FE8A073E87832744FEBA9721
:101E90009C432326F4FE39A0010031A0010021A0BB
:101EA000010011A001008327C4FE3E85B2502254D8
:101EB00045618280797106D622D40018232EA4FCB5
:101EC000232CB4FCEF40601DAA872326F4FE930761
:101ED000C4FE3E8689450325C4FD6535AA873E8537
:101EE000B250225445618280797106D622D40018FE
:101EF000232EA4FC232CB4FCEF40201AAA8723260F
:101F0000F4FE9307C4FE3E868D450325C4FD953D32
:101F1000AA873E85B250225445618280011122CEAB
:101F200000102326A4FE0327C4FE93874181631477
:101F3000F700814711A0FD573E85724405618280FC
:101F4000011122CE00102326A4FE0327C4FE93878E
:101F500041816317F700B727F4009387074011A06A
:101F600081473E85724405618280011122CE0010B6
:101F70002326A4FE0327C4FE938741816317F7003D
:101F8000B70700809387070A11A081473E857244F6
:101F900005618280011122CE00102326A4FE0327B2
:101FA000C4FE938741816314F700814711A08147E4
:101FB0003E85724405618280011122CE00102326E5
:101FC000A4FE8327C4FE634CF000B71700800327EC
:101FD000C4FE0A07938707ABBA979C4311A08147B9
:101FE0003E85724405618280011122CE0010F327E4
:101FF00040F12326F4FE8327C4FE3E85724405612A
:102000008280011122CE0010A147F3A707302326BA
:10201000F4FE0100724405618280011122CE00109D
:10202000A147F3B707302326F4FE0100724405618F
:102030008280011122CE0010A147F3A7473023264A
:10204000F4FE0100724405618280011122CE00106D
:10205000A147F3B747302326F4FE0100724405611F
:102060008280011122CE001093070008F3A74730A9
:102070002326F4FE0100724405618280011122CE04
:10208000001093070008F3B747302326F4FE010041
:10209000724405618280011122CE0010856793870A
:1020A0000780F3A747302326F4FE01007244056140
:1020B0008280011122CE0010856793870780F3B7D5
:1020C00047302326F4FE0100724405618280797155
:1020D00022D60018232EA4FC8327C4FD0547B3177E
:1020E000F7002326F4FE8327C4FEF3A747302324FA
:1020F000F4FE0100325445618280797122D60018C5
:10210000232EA4FC8327C4FD0547B317F70023261D
:10211000F4FE8327C4FEF3B747302324F4FE010006
:10212000325445618280011106CE22CC0010232654
:10213000A4FE2324B4FE13054006EF400022011143
:1021400006CE22CC00102326A4FE2324B4FE1305C1
:10215000800CEF4080205D7186C696C49AC29EC0F6
:1021600022DE2ADC2EDA32D836D63AD43ED242D01B
:1021700046CE72CC76CA7AC87EC680081305C012D5
:10218000EF40A01D1D7186CE96CC9ACA9EC8A2C6ED
:10219000AAC4AEC2B2C036DE3ADC3EDA42D846D677
:1021A00072D476D27AD07ECE80103D3D2A87B71782
:1021B00000800A07938707ABBA979C432326F4FA5B
:1021C0008327C4FA85C70325C4FA45332324A4FA18
:1021D000832784FA83A7070E2322F4FA832784FA3D
:1021E00083A7870D832544FA0D4582970100F640A9
:1021F000E6425643C6433644264596450646F256C1
:102200006257D2574258B258225E925E025FF24F36
:10221000256173002030797106D622D40018232E50
:10222000A4FC232CB4FCC9332A87B71700800A0703
:10223000938707ABBA979C432326F4FEF3272034F9
:102240002324F4FE8327C4FE95C70325C4FE313B37
:102250002322A4FE832784FE93F7F73F032744FE3F
:102260009387870E8A07BA979C438325C4FD03256D
:10227000C4FE82970100B2502254456182801D71D4
:1022800086CE96CC9ACA9EC8A2C6AAC4AEC2B2C016
:1022900036DE3ADC3EDA42D846D672D476D27AD0EE
:1022A0007ECE801091332A87B71700800A07938764
:1022B00007ABBA979C432326F4FA8327C4FA85C751
:1022C0000325C4FA5D312324A4FA832784FA83A763
:1022D00007142322F4FA832784FA83A7871383251C
:1022E00044FA1D4582970100F640E6425643C64334
:1022F0003644264596450646F2566257D25742580E
:10230000B258225E925E025FF24F25617300203068
:10231000011122CE00102326A4FE2324B4FE0100C6
:10232000724405618280797106D622D40018232E6A
:10233000A4FC232CB4FC4D39AA873E85B53923264D
:10234000A4FE0325C4FEEF10602B2320A4FE23224D
:10235000B4FE832704FE032844FEA9450146B38644
:10236000B70036853335F5003307C800B307E500FD
:102370003E87B6873A88BE8542860325C4FEEF10A5
:10238000402E0100B25022544561828000000000BE
:10239000000000000000000000000000000000003D
:1023A000000000000000000000000000000000002D
:1023B000000000000000000000000000000000001D
:1023C000000000000000000000000000000000000D
:1023D00000000000000000000000000000000000FD
:1023E00000000000000000000000000000000000ED
:1023F00000000000000000000000000000000000DD
:10240000197186DE96DC9ADA9ED8A2D6AAD4AED20C
:10241000B2D0B6CEBACCBECAC2C8C6C6F2C4F6C224
:10242000FAC07EDE0001C9362A87B71700800A0786
:10243000938707ABBA979C432326F4FAF3272034FB
:102440002324F4FAF32710342322F4FAF327303448
:102450002320F4FAF3275030232EF4F88327C4FA0C
:10246000F5CB0325C4FA1136232CA4F8832784FA6C
:1024700093F7F73F232AF4F8832784FA63DE070AE9
:10248000032744F9930700086312F702832784F9AE
:1024900083A787392328F4F8832784F983A707398A
:1024A000832504F9032544F982976DA0032744F995
:1024B000AD4763D7E7008327C4F993F7F7039DEF90
:1024C000832684F9032744F9BA878607BA978E07CB
:1024D000B69783A787092328F4F8832684F903276E
:1024E00044F9BA878607BA978E07B69783A7070974
:1024F000832504F9032544F98297A9A88327C4F901
:1025000013F7F70389476317F704F327703023267F
:10251000F4F8832784F983A7C70D2328F4F88327C9
:10252000C4F89C432324F4F8832784F8832504F912
:10253000032544F9829739A8032784F9832744F9AE
:102540009387870E8A07BA979C43832544F903250E
:10255000C4FA8297F650E6525653C653365426555F
:1025600096550656F6466647D6474648B648264E1E
:10257000964E064FF25F09617300203000000000A4
:10258000000000000000000000000000000000004B
:10259000000000000000000000000000000000003B
:1025A000000000000000000000000000000000002B
:1025B000000000000000000000000000000000001B
:1025C000000000000000000000000000000000000B
:1025D00000000000000000000000000000000000FB
:1025E00000000000000000000000000000000000EB
:1025F0000000000000001D7186CE96CC9ACA9EC8CD
:10260000A2C6AAC4AEC2B2C036DE3ADC3EDA42D8B6
:1026100046D672D476D27AD07ECE8010EFF0DF9C90
:102620002A87B71700800A07938707ABBA979C439E
:102630002326F4FA8327C4FA8DC70325C4FAEFF0E2
:10264000DF922324A4FA832784FA83A787212322F5
:10265000F4FA832784FA83A70721832544FA4145A6
:1026600082970100F640E6425643C643364426456B
:1026700096450646F2566257D2574258B258225EE5
:10268000925E025FF24F2561730020301D7186CE8D
:1026900096CC9ACA9EC8A2C6AAC4AEC2B2C036DE42
:1026A0003ADC3EDA42D846D672D476D27AD07ECEA2
:1026B0008010EFF07F932A87B71700800A0793876F
:1026C00007ABBA979C432326F4FA8327C4FA8DC735
:1026D0000325C4FAEFF07F892324A4FA832784FA20
:1026E00083A707232322F4FA832784FA83A7872268
:1026F000832544FA454582970100F640E642564359
:10270000C6433644264596450646F2566257D2578A
:102710004258B258225E925E025FF24F256173000A
:1027200020301D7186CE96CC9ACA9EC8A2C6AAC475
:10273000AEC2B2C036DE3ADC3EDA42D846D672D4F9
:1027400076D27AD07ECE8010EFF01F8A2A87B71714
:1027500000800A07938707ABBA979C432326F4FAB5
:102760008327C4FA8DC70325C4FAEFF01F80232402
:10277000A4FA832784FA83A787242322F4FA8327E1
:1027800084FA83A70724832544FA494582970100E8
:10279000F640E6425643C64336442645964506462D
:1027A000F2566257D2574258B258225E925E025F8A
:1027B000F24F2561730020301D7186CE96CC9ACAE7
:1027C0009EC8A2C6AAC4AEC2B2C036DE3ADC3EDAA9
:1027D00042D846D672D476D27AD07ECE8010EFF030
:1027E000BF802A87B71700800A07938707ABBA977D
:1027F0009C432326F4FA8327C4FA8DC70325C4FA21
:10280000EFF0AFF62324A4FA832784FA83A70726E0
:102810002322F4FA832784FA83A78725832544FAA1
:102820004D4582970100F640E6425643C643364482
:10283000264596450646F2566257D2574258B25838
:10284000225E925E025FF24F2561730020301D719F
:1028500086CE96CC9ACA9EC8A2C6AAC4AEC2B2C040
:1028600036DE3ADC3EDA42D846D672D476D27AD018
:102870007ECE8010EFF04FF72A87B71700800A0747
:10288000938707ABBA979C432326F4FA8327C4FAAD
:102890008DC70325C4FAEFF04FED2324A4FA832754
:1028A00084FA83A787272322F4FA832784FA83A74D
:1028B0000727832544FA514582970100F640E642F6
:1028C0005643C6433644264596450646F256625759
:1028D000D2574258B258225E925E025FF24F256193
:1028E000730020301D7186CE96CC9ACA9EC8A2C6AF
:1028F000AAC4AEC2B2C036DE3ADC3EDA42D846D610
:1029000072D476D27AD07ECE8010EFF0EFED2A87A7
:10291000B71700800A07938707ABBA979C43232613
:10292000F4FA8327C4FA8DC70325C4FAEFF0EFE366
:102930002324A4FA832784FA83A707292322F4FAFD
:10294000832784FA83A78728832544FA55458297ED
:102950000100F640E6425643C643364426459645B6
:102960000646F2566257D2574258B258225E925EDD
:10297000025FF24F2561730020301D7186CE96CC28
:102980009ACA9EC8A2C6AAC4AEC2B2C036DE3ADC9B
:102990003EDA42D846D672D476D27AD07ECE801035
:1029A000EFF08FE42A87B71700800A07938707ABF9
:1029B000BA979C432326F4FA8327C4FA8DC70325CC
:1029C000C4FAEFF08FDA2324A4FA832784FA83A7CA
:1029D000872A2322F4FA832784FA83A7072A8325E8
:1029E00044FA594582970100F640E6425643C643F1
:1029F0003644264596450646F2566257D257425807
:102A0000B258225E925E025FF24F25617300203061
:102A10001D7186CE96CC9ACA9EC8A2C6AAC4AEC262
:102A2000B2C036DE3ADC3EDA42D846D672D476D22E
:102A30007AD07ECE8010EFF02FDB2A87B717008088
:102A40000A07938707ABBA979C432326F4FA832798
:102A5000C4FA8DC70325C4FAEFF02FD12324A4FABA
:102A6000832784FA83A7072C2322F4FA832784FA86
:102A700083A7872B832544FA5D4582970100F640A2
:102A8000E6425643C6433644264596450646F25628
:102A90006257D2574258B258225E925E025FF24F9E
:102AA0002561730020301D7186CE96CC9ACA9EC8CF
:102AB000A2C6AAC4AEC2B2C036DE3ADC3EDA42D802
:102AC00046D672D476D27AD07ECE8010EFF0CFD1B7
:102AD0002A87B71700800A07938707ABBA979C43EA
:102AE0002326F4FA8327C4FA8DC70325C4FAEFF02E
:102AF000CFC72324A4FA832784FA83A7872D232210
:102B0000F4FA832784FA83A7072D832544FA6145C5
:102B100082970100F640E6425643C64336442645B6
:102B200096450646F2566257D2574258B258225E30
:102B3000925E025FF24F2561730020301D7186CED8
:102B400096CC9ACA9EC8A2C6AAC4AEC2B2C036DE8D
:102B50003ADC3EDA42D846D672D476D27AD07ECEED
:102B60008010EFF06FC82A87B71700800A07938795
:102B700007ABBA979C432326F4FA8327C4FA8DC780
:102B80000325C4FAEFF06FBE2324A4FA832784FA46
:102B900083A7072F2322F4FA832784FA83A7872E9B
:102BA000832544FA654582970100F640E642564384
:102BB000C6433644264596450646F2566257D257D6
:102BC0004258B258225E925E025FF24F2561730056
:102BD00020301D7186CE96CC9ACA9EC8A2C6AAC4C1
:102BE000AEC2B2C036DE3ADC3EDA42D846D672D445
:102BF00076D27AD07ECE8010EFF00FBF2A87B7173B
:102C000000800A07938707ABBA979C432326F4FA00
:102C10008327C4FA8DC70325C4FAEFF00FB5232428
:102C2000A4FA832784FA83A787302322F4FA832720
:102C300084FA83A70730832544FA69458297010007
:102C4000F640E6425643C643364426459645064678
:102C5000F2566257D2574258B258225E925E025FD5
:102C6000F24F2561730020301D7186CE96CC9ACA32
:102C70009EC8A2C6AAC4AEC2B2C036DE3ADC3EDAF4
:102C800042D846D672D476D27AD07ECE8010EFF07B
:102C9000AFB52A87B71700800A07938707ABBA97A3
:102CA0009C432326F4FA8327C4FA8DC70325C4FA6C
:102CB000EFF0AFAB2324A4FA832784FA83A707326B
:102CC0002322F4FA832784FA83A78731832544FAE1
:102CD0006D4582970100F640E6425643C6433644AE
:102CE000264596450646F2566257D2574258B25884
:102CF000225E925E025FF24F2561730020301D71EB
:102D000086CE96CC9ACA9EC8A2C6AAC4AEC2B2C08B
:102D100036DE3ADC3EDA42D846D672D476D27AD063
:102D20007ECE8010EFF04FAC2A87B71700800A07DD
:102D3000938707ABBA979C432326F4FA8327C4FAF8
:102D40008DC70325C4FAEFF04FA22324A4FA8327EA
:102D500084FA83A787332322F4FA832784FA83A78C
:102D60000733832544FA714582970100F640E64215
:102D70005643C6433644264596450646F2566257A4
:102D8000D2574258B258225E925E025FF24F2561DE
:102D9000730020301D7186CE96CC9ACA9EC8A2C6FA
:102DA000AAC4AEC2B2C036DE3ADC3EDA42D846D65B
:102DB00072D476D27AD07ECE8010EFF0EFA22A873E
:102DC000B71700800A07938707ABBA979C4323265F
:102DD000F4FA8327C4FA8DC70325C4FAEFF0EF98FD
:102DE0002324A4FA832784FA83A707352322F4FA3D
:102DF000832784FA83A78734832544FA754582970D
:102E00000100F640E6425643C64336442645964501
:102E10000646F2566257D2574258B258225E925E28
:102E2000025FF24F2561730020301D7186CE96CC73
:102E30009ACA9EC8A2C6AAC4AEC2B2C036DE3ADCE6
:102E40003EDA42D846D672D476D27AD07ECE801080
:102E5000EFF08F992A87B71700800A07938707AB8F
:102E6000BA979C432326F4FA8327C4FA8DC7032517
:102E7000C4FAEFF08F8F2324A4FA832784FA83A760
:102E800087362322F4FA832784FA83A7073683251B
:102E900044FA794582970100F640E6425643C6431C
:102EA0003644264596450646F2566257D257425852
:102EB000B258225E925E025FF24F256173002030AD
:102EC0001D7186CE96CC9ACA9EC8A2C6AAC4AEC2AE
:102ED000B2C036DE3ADC3EDA42D846D672D476D27A
:102EE0007AD07ECE8010EFF02F902A87B71700801F
:102EF0000A07938707ABBA979C432326F4FA8327E4
:102F0000C4FA8DC70325C4FAEFF02F862324A4FA50
:102F1000832784FA83A707382322F4FA832784FAC5
:102F200083A78737832544FA7D4582970100F640C1
:102F3000E6425643C6433644264596450646F25673
:102F40006257D2574258B258225E925E025FF24FE9
:102F5000256173002030011122CE0010F32750307C
:102F60002326F4FE8327C4FE93F7F7032326F4FEFB
:102F70000327C4FE8947630DF7000327C4FE8D476E
:102F8000630AF7000327C4FE85476307F70039A0EB
:102F90008D4731A0914721A0854711A081473E85EB
:102FA000724405618280797122D60018232EA4FC18
:102FB000232CB4FCF32750302326F4FE8327C4FED1
:102FC00093F707FC2326F4FE832784FD2324F4FED5
:102FD0000327C4FD914763E0E7068327C4FD1397E9
:102FE0002700B70701209387C745BA979C4382877C
:102FF000832784FE739077308327C4FE93E72700EE
:10300000739057300DA8832784FE73907730832701
:10301000C4FE93E737007390573031A8832784FEAE
:1030200093E717007390573039A0832784FEF19BF4
:1030300073905730010001003254456182800111C4
:1030400022CE00102326A4FE0327C4FEAD47630250
:10305000F7040327C4FEAD4763CDE7000327C4FE92
:103060008D476308F7020327C4FE9D476303F702F9
:103070001DA00327C4FEC147634FF7000327C4FE0A
:10308000FD4763D8E7000327C4FE930700086314D5
:10309000F700854719A0010081473E85724405610C
:1030A0008280797106D622D40018232EA4FC232C0A
:1030B000B4FC232AC4FC232604FE8327C4FD99E321
:1030C000FD5749A8032784FDFD4763E0E7088327F0
:1030D00084FD13972700B707012093870747BA9706
:1030E0009C438287832744FD81C7EFE09FF18DA039
:1030F000EFE0BFF2B1A8832744FD81C7EFE07FF383
:1031000081A8EFE09FF4A9A0832744FD81C7EFE0E9
:103110005FF53DA8EFE09FF625A8832744FD81C712
:10312000EFE07FF735A0EFE0DFF81DA0832744FD37
:1031300099C7832784FD3E85EFE07FF911A8832797
:1031400084FD3E85EFE07FFB21A0FD572326F4FEA2
:103150008327C4FE3E85B250225445618280797136
:1031600022D60018232EA4FC232CB4FC232AC4FC52
:103170008327C4FD2326F4FE032784FDAD4763C2E5
:10318000E702832744FD91CF0327C4FE832784FDF4
:103190009387870E8A07BA97032744FD98C3814710
:1031A00011A0FD573E85325445618280797106D663
:1031B00022D40018232EA4FC8327C4FD2322F4FE6E
:1031C000832744FEDC43DDEF232604FEB9A08326DB
:1031D00044FE0327C4FEBA878607BA978E07B697C0
:1031E00023A80708832644FE0327C4FEBA87860760
:1031F000BA978E07B69723AA0708832644FE0327AB
:10320000C4FEBA878607BA978E07B69723AC07081D
:103210008327C4FE85072326F4FE0327C4FEFD474B
:10322000E3D7E7FA232404FE1DA0032744FE8327E7
:1032300084FE9387870E8A07BA97372701201307E2
:10324000671298C3832784FE85072324F4FE03278F
:1032500084FEAD47E3DBE7FCF32750302320F4FE88
:10326000B70701209387C713032704FE6318F700ED
:10327000B72701209385074001453533832744FE56
:103280000547D8C30100B25022544561828079714C
:1032900006D622D40018232EA4FC232CB4FC232A07
:1032A000C4FC2328D4FC232604FE8327C4FD232446
:1032B000F4FE032584FD6133AA8799E3D55771AAEB
:1032C000032784FD930700086317F7006931AA8775
:1032D00099C3CD5759A2832744FDB9CF032784FD55
:1032E00093070008631FF700832784FE032744FD2C
:1032F00023A8E738832784FE032704FD23ACE7389F
:1033000099AA832684FE032784FDBA878607BA9785
:103310008E07B697032744FD23A8E708832684FE7B
:10332000032784FDBA878607BA978E07B6970327C7
:1033300004FD23ACE70805A2032784FDAD47630C19
:10334000F70C032784FDAD4763CDE700032784FD19
:103350008D476309F702032784FD9D476301F70644
:10336000C5A8032784FDC1476344F70E032784FDE6
:10337000FD4763D2E70A032784FD93070008630D26
:10338000F706F9A0832684FE032784FDBA87860703
:10339000BA978E07B697372701201307672123A80E
:1033A000E708832684FE032784FDBA878607BA9739
:1033B0008E07B697032704FD23AAE70869A883268A
:1033C00084FE032784FDBA878607BA978E07B697CF
:1033D000372701201307673223A8E708832684FED6
:1033E000032784FDBA878607BA978E07B697032707
:1033F00004FD23AAE70885A0832784FE3727012040
:103400001307073123A8E738832784FE032704FD29
:1034100023ACE73889A0832684FE032784FDBA877E
:103420008607BA978E07B697372701201307E71349
:1034300023A8E708832684FE032784FDBA8786072E
:10344000BA978E07B697032704FD23AAE70821A0A1
:10345000D1572326F4FE8327C4FE3E85B250225462
:1034600045618280011106CE22CC00102326A4FEE5
:103470002324B4FE832784FE0546BE850325C4FEAF
:103480000D31AA873E85F2406244056182800111B8
:1034900006CE22CC00102326A4FE2324B4FE8327CC
:1034A00084FE0146BE850325C4FEE53EAA873E850F
:1034B000F240624405618280011106CE22CC0010E8
:1034C0002326A4FEEFF03FA9AA873E85F24062447E
:1034D00005618280011106CE22CC00102326A4FEB5
:1034E0002324B4FE832784FE99EBB727012093851C
:1034F0000740032584FEEFF01FAB81470DA0032793
:1035000084FE8547631CF700B76701209385074059
:10351000032584FEEFF03FA9814711A0FD573E85AA
:10352000F240624405618280011122CE0010232600
:10353000A4FE2324B4FE2322C4FE81473E857244A8
:1035400005618280397122DE80002326A4FC0143BC
:103550008143232464FE232674FE732500B82322AE
:10356000A4FE732500B02320A4FE732500B8232EEB
:10357000A4FC832844FE0325C4FDE390A8FE032594
:1035800044FEAA850146139805008147032604FEE0
:10359000B286014733E6D7002324C4FEB367E800B0
:1035A0002326F4FE832784FE0328C4FE3E85C285BD
:1035B000725421618280797106D622D44AD24ED0CB
:1035C0000018232EA4FC8327C4FD81E7014981490B
:1035D00021A80325C4FDEFE0BF962326A4FE832780
:1035E000C4FE3E89FD87BE89CA874E883E85C28556
:1035F000B25022541259825945618280797106D69F
:1036000022D40018232EA4FC814701482320F4FE75
:10361000232204FF0325C4FDEFE03F952326A4FEEB
:103620008327C4FE8DC78327C4FE83A7C713232423
:10363000F4FE832784FE81CF832784FE9C43F847D2
:10364000930704FE3E868545032584FE0297832763
:1036500004FE032844FE3E85C285B25022544561D3
:103660008280797106D622D426D20018232EA4FC9B
:103670002328B4FC232AC4FCFD572326F4FE03258B
:10368000C4FDEFE09F8E2324A4FE832784FE8DCF0C
:10369000832784FE83A7C7132322F4FE832744FED7
:1036A00085C7832744FE9C43A44B0325C4FDEFE05C
:1036B000FF86AA87032604FD832644FDBE850325D5
:1036C00044FE82942326A4FE8327C4FE3E85B25086
:1036D0002254925445618280011122CE001023268B
:1036E000A4FEB71700809387C7AB3E85724405617F
:1036F0008280011122CE00102326A4FE9D473E8524
:10370000724405618280011122CE00102326A4FE9E
:10371000B71700809387C7AB3E85724405618280EE
:10372000011122CE00102326A4FE8D473E8572444F
:1037300005618280797106D622D40018232EA4FC5C
:10374000232CB4FCFD572326F4FE0325C4FDEFE033
:10375000DF812324A4FE832784FE9DC7832784FE64
:1037600083A7C70D2322F4FE832744FE91CF83272E
:1037700044FE9C43F847930784FD3E868D45032510
:1037800044FE02972326A4FE8327C4FE3E85B25042
:10379000225445618280797106D622D40018232EE6
:1037A000A4FC232CB4FCFD572326F4FE0325C4FD02
:1037B000EFE0AFFB2324A4FE832784FE9DC783276D
:1037C00084FE83A7C70D2322F4FE832744FE91CFF6
:1037D000832744FE9C43F847930784FD3E86894532
:1037E000032544FE02972326A4FE8327C4FE3E85BC
:1037F000B250225445618280797106D622D40018D5
:10380000232EA4FC232CB4FC232604FE0325C4FD94
:10381000EFE0AFF52324A4FE832784FE9DC7832712
:1038200084FE83A7C70D2322F4FE832744FE91CF95
:10383000832744FE9C43F847930784FD3E869145C9
:10384000032544FE02972326A4FE8327C4FE3E855B
:10385000B250225445618280011106CE22CC001064
:103860002326A4FE0325C4FEEFE02FF0AA873E85A1
:10387000F240624405618280797106D622D4001834
:10388000232EA4FC232CB4FC232AC4FC0325C4FD52
:10389000EFE0AFED2326A4FE8327C4FE99CB0326D9
:1038A00044FD832584FD0325C4FEEFF05F8BAA87CA
:1038B00011A0FD573E85B25022544561828001110E
:1038C00022CE00102326A4FE2324B4FE832784FEE8
:1038D00083D7070013F737008D476314F70091472C
:1038E00011A089473E85724405618280797122D694
:1038F0000018232EA4FCF32710342326F4FE83277C
:10390000C4FE3E85325445618280011122CE0010F2
:103910002326A4FE2324B4FE832784FE7390173449
:1039200081473E85724405618280011106CE22CC1A
:1039300000102326A4FE0325C4FEEFE0AFE5AA870E
:103940003E85F240624405618280011122CE001062
:103950002326A4FE0327C4FEB707008093870747EA
:103960006315F700B707000C11A081473E8572442C
:1039700005618280011122CE00102326A4FE0327B8
:10398000C4FEB7070080938707476315F7009307C6
:10399000500311A081473E85724405618280011168
:1039A00022CE00102326A4FE0327C4FEB707008002
:1039B000938707476314F7009D4711A081473E8511
:1039C000724405618280011122CE00102326A4FEDC
:1039D0002324B4FE832784FE91E7B70700809387F2
:1039E000070A11A081473E8572440561828001115A
:1039F00022CE00102326A4FE2324B4FE832784FEB7
:103A000099E3AD4711A081473E85724405618280EC
:103A1000011122CE00102326A4FE8327C4FE99E3C1
:103A2000814711A0FD573E857244056182807971FE
:103A300006D622D40018232EA4FC232CB4FC032584
:103A4000C4FD21372326A4FE832784FD1397C700D6
:103A50008327C4FE3E97B70720009107BA979C437F
:103A60003E85B250225445618280797106D622D4B7
:103A70000018232EA4FC232CB4FC232AC4FC032509
:103A8000C4FDE1352326A4FE832784FD1397C700D8
:103A90008327C4FE3E97B70720009107BA973E8759
:103AA000832744FD1CC30100B2502254456182802B
:103AB000797106D622D40018232EA4FC232CB4FC42
:103AC000232AC4FC0325C4FD49352326A4FE8327ED
:103AD00084FD1397C7008327C4FE3E97B7072000D5
:103AE000BA973E87832744FD1CC381473E85B25069
:103AF000225445618280797106D622D40018232E83
:103B0000A4FC232CB4FC0325C4FD81352326A4FE8C
:103B1000832784FD1397C7008327C4FE3E97B7070A
:103B20002000BA979C433E85B25022544561828062
:103B3000797106D622D40018232EA4FC232CB4FCC1
:103B4000232AC4FC0325C4FD09352326A4FE03252E
:103B5000C4FDB135AA872324F4FE832784FE85C7DC
:103B6000032744FD832784FE637FF700832784FDBA
:103B70008A073E878327C4FEBA973E87832744FD82
:103B80001CC3814711A0FD573E85B25022544561A8
:103B90008280797106D622D40018232EA4FC232C0F
:103BA000B4FC0325C4FD55332326A4FE832784FDDE
:103BB0008A073E878327C4FEBA979C433E85B2504E
:103BC000225445618280797106D622D40018232EB2
:103BD000A4FC232CB4FC232AC4FC2328D4FC0325F6
:103BE000C4FDA5332326A4FE832784FD1397770005
:103BF0008327C4FEBA97032744FD15870A073E971B
:103C00008967BA979C432324F4FE832704FD81CF60
:103C1000832744FDFD8B0547B317F7003E878327B5
:103C200084FED98F29A8832744FDFD8B0547B31750
:103C3000F70093C7F7FF3E87832784FEF98F03279A
:103C400084FD931677000327C4FE3697832644FD30
:103C500095868A06BA96096736971CC381473E85C2
:103C6000B250225445618280011106CE22CC001050
:103C70002326A4FE2324B4FE1305C012EF20E06D1A
:103C8000797106D622D40018232EA4FC232CB4FC70
:103C9000832784FD2326F4FEEFE00FB5AA873E8537
:103CA000853B2324A4FE832584FE0325C4FE4133E3
:103CB0002322A4FE0325C4FE7539AA872320F4FE1F
:103CC000032744FE832704FE6372F7040327C4FE20
:103CD000832744FE8A07BA979C478DCB0327C4FEEF
:103CE000832744FE8A07BA9703A88700032644FE69
:103CF0008326C4FE032744FEBA878607BA978E0739
:103D0000B69783A7070FBE8532850298032644FE27
:103D1000832584FE0325C4FE893B0100B250225452
:103D200045618280397106DE22DC80002326A4FCF6
:103D30008327C4FC2322F4FE832744FEDC436396DE
:103D40000712232604FE11AA0325C4FC25312320D3
:103D5000A4FE8325C4FE0325C4FCB531232EA4FC98
:103D60008325C4FE0325C4FC5931232CA4FC8327DE
:103D7000C4FD9C439C430325C4FD8297232404FE79
:103D800085A88146032684FE8325C4FE032544FEC0
:103D90001D3D032784FE832704FE6356F704014676
:103DA000832584FE0325C4FC6133032744FE832757
:103DB00084FE8A07BA9723A40700832644FE0327BC
:103DC00084FEBA878607BA978E07B69723A6070E92
:103DD000832644FE032784FEBA878607BA978E0798
:103DE000B69723A8070E832784FE85072324F4FEB5
:103DF000032784FE9307F03FE3D5E7F801468325C8
:103E0000C4FE0325C4FC6D318327C4FD9C43DC4FF5
:103E1000832644FE0146832584FD0325C4FD829745
:103E20008327C4FD9C43D84F832644FEB747012017
:103E3000138607C8832584FD0325C4FD02978327C5
:103E4000C4FD9C43DC53832584FD0325C4FD829778
:103E50008327C4FE85072326F4FE8327C4FEE3558B
:103E6000F0EE832744FE0547D8C30100F2506254A8
:103E700021618280797106D622D40018232EA4FCF9
:103E8000232CB4FC232AC4FC2328D4FC8327C4FDA0
:103E90002326F4FE0325C4FDEFF0DFAD2A87832738
:103EA00084FD63C4E700FD5741A0832744FD95CFFF
:103EB0000946832584FD0325C4FD9D390327C4FEDF
:103EC000832784FD8A07BA97032744FD98C7832672
:103ED000C4FE032784FDBA878607BA978E07B69774
:103EE000032704FD23A8E70E3DA80546832584FD8E
:103EF0000325C4FD35390327C4FE832784FD8A07C3
:103F0000BA9737470120130787C698C78326C4FE90
:103F1000032784FDBA878607BA978E07B6970327CB
:103F200004FD23A6E70E81473E85B2502254456129
:103F30008280797106D622D40018232EA4FC232C6B
:103F4000B4FC8327C4FD2326F4FE0325C4FDEFF053
:103F50007FA22A87832784FD63C4E700FD5721A839
:103F6000EFE08F88AA878546032684FDBE8503255A
:103F7000C4FE913981473E85B2502254456182800A
:103F8000797106D622D40018232EA4FC232CB4FC6D
:103F90008327C4FD2326F4FE0325C4FDEFF09F9D77
:103FA0002A87832784FD63C4E700FD5721A8EFE03B
:103FB000AF83AA878146032684FDBE850325C4FE00
:103FC000193181473E85B2502254456182800111EA
:103FD00006CE22CC00102326A4FE2324B4FEEFE05C
:103FE000AF80AA87032684FEBE850325C4FEEFF0BA
:103FF0003FACAA873E85F240624405618280011190
:1040000006CE22CC00102326A4FEEFD0FFFDAA8707
:10401000BE850325C4FEEFF01FAEAA873E85F240A1
:10402000624405618280797106D622D40018232E5D
:10403000A4FC232CB4FC232AC4FC232204FE8327E3
:10404000C4FD2324F4FE0325C4FDEFF0BF922A87AC
:10405000832744FD63C8E700FD572322F4FE83272E
:1040600044FE99A8232604FE99A08327C4FE95C781
:104070008546032644FD8325C4FE032584FEEFF018
:104080009FB4AA8713F717008327C4FE3317F700DE
:10409000832744FED98F2322F4FE8327C4FE85079D
:1040A0002326F4FE832784FD8583232CF4FC8327B9
:1040B00084FDC5FF832744FE3E85B25022544561EE
:1040C0008280797106D622D40018232EA4FC232CDA
:1040D000B4FC232AC4FC232204FE8327C4FD23242A
:1040E000F4FE0325C4FDEFF0FF882A87832744FDF3
:1040F00063C8E700FD572322F4FE832744FE99A8F6
:10410000232604FE99A08327C4FE95C78146032673
:1041100044FD8325C4FE032584FEEFF0DFAAAA87B1
:1041200013F717008327C4FE3317F700832744FED5
:10413000D98F2322F4FE8327C4FE85072326F4FEAD
:10414000832784FD8583232CF4FC832784FDC5FF0E
:10415000832744FE3E85B2502254456182807971A6
:1041600006D622D40018232EA4FC232CB4FC232A28
:10417000C4FC232404FE232604FE91A08327C4FE4E
:104180008DC7032644FD8325C4FE0325C4FDEFF03F
:104190003F92AA8713F717008327C4FE3317F7004F
:1041A000832784FED98F2324F4FE8327C4FE85074A
:1041B0002326F4FE832784FD8583232CF4FC8327A8
:1041C00084FDCDFF832784FE3E85B2502254456195
:1041D0008280011106CE22CC00102326A4FE2324C7
:1041E000B4FE832584FE0325C4FEEFF0DF908147F3
:1041F0003E85F240624405618280011122CE0010AA
:104200002326A4FEB7070080938787073E85724464
:1042100005618280011122CE00102326A4FE93871F
:10422000C1823E85724405618280011122CE001058
:104230002326A4FE81473E85724405618280411198
:1042400022C60008938701843E8532444101828062
:10425000397106DE22DC80002326A4FC0325C4FC81
:10426000693F2326A4FE0325C4FCC1372324A4FEF2
:104270000325C4FC45372322A4FED1372320A4FE06
:10428000832704FE9C43832584FE032544FE8297F6
:10429000232EA4FC0327C4FDB7070040F98F99E340
:1042A000FD5725A08327C4FD63C40700FD5731A82F
:1042B0000325C4FEEF10504CAA873E878327C4FD18
:1042C00093F7F7038507B357F7023E85F250625420
:1042D00021618280011106CE22CC00102326A4FE8B
:1042E0002324B4FE0325C4FEA537AA873E85F240E9
:1042F000624405618280011122CE00102326A4FEB3
:10430000B70700809387C7063E85724405618280A7
:10431000011122CE00102326A4FE9387C1823E8580
:10432000724405618280011122CE00102326A4FE72
:1043300091473E85724405618280411122C6000882
:10434000938701843E85324441018280397106DEC3
:1043500022DC80002326A4FC0325C4FC693F23261D
:10436000A4FE0325C4FCC1372324A4FE0325C4FCFA
:1043700045372322A4FED1372320A4FE832704FE41
:104380009C43832584FE032544FE8297232EA4FCB0
:104390000327C4FDB7070040F98F99E3FD5721A813
:1043A0008327C4FD63C40700FD5731A00325C4FE65
:1043B000EF10903CAA873E85F250625421618280C2
:1043C000011106CE22CC00102326A4FE2324B4FE25
:1043D0000325C4FEA53FAA873E85F24062440561DD
:1043E0008280011122CE00102326A4FEB717008080
:1043F000938787A83E85724405618280011122CE91
:1044000000102326A4FEB7170080938747A93E8596
:10441000724405618280011122CE00102326A4FE81
:104420009387C1823E85724405618280011122CE4C
:1044300000102326A4FEB1473E85724405618280A8
:10444000411122C600089387C1823E853244410152
:104450008280411122C60008A1473E8532444101B5
:104460008280411122C60008B727F40093870740D5
:104470003E85324441018280411122C60008B7873F
:1044800000103E85324441018280411122C600085D
:10449000938701843E85324441018280011122CEFE
:1044A00000102326A4FE2324B4FE832784FE9C4709
:1044B0000327C4FE6369F700832784FEDC470327D4
:1044C000C4FE63F4E700FD5729A8832784FE9843C0
:1044D0008327C4FE3307F702832784FEDC43B357E8
:1044E000F7023E85724405618280397106DE22DC66
:1044F00080002326A4FC8327C4FC3E8501372326A5
:10450000A4FE85372324A4FEA9372322A4FEAD37B9
:104510002320A4FE032704FE832744FEBA97232EFC
:10452000F4FC8327C4FCDC433E85EF10B01B8327DB
:10453000C4FD9843C167F98F91CB8327C4FD98438D
:10454000C177FD177D8F8327C4FD98C38327C4FEE1
:1045500091CB8327C4FD9843B70702005D8F832763
:10456000C4FD98C38327C4FC9C43D8438327C4FC61
:10457000832584FE3E8502978327C4FC9C473E85A5
:10458000EF1050160100F2506254216182801D71BB
:1045900086CEA2CC80102326A4FA0325C4FAB93D06
:1045A0002326A4FE0325C4FA2D3D2324A4FE0325BF
:1045B000C4FA45352322A4FE0325C4FA513523202D
:1045C000A4FE0325C4FA9D35232EA4FC0325C4FABA
:1045D0009935232CA4FC553D232AA4FC832744FDB4
:1045E0009C43832544FE032504FE82972328A4FCD4
:1045F000832744FD9C438325C4FD032584FD8297C6
:104600002326A4FC032704FDC1677D8FC16763785F
:10461000F700032584FEEF103016AA87E1A80327D0
:1046200004FDB70702007D8FB70702006365F7003E
:104630008327C4FE19A0832784FE3E85EF10D01384
:104640002324A4FC032704FDB70704007D8FB707CC
:1046500004006365F700832784FC69A8832704FDB1
:104660009D8B85072322F4FC832704FD93F7073FE6
:104670009183850786072320F4FC032704FD8567C3
:10468000938707C07D8F9307F03F63E4E700FD57F2
:1046900095A0032704FD8567938707C0F98FA98339
:1046A0000547B317F700232EF4FA032784FC83276A
:1046B00044FC3347F702832704FC3307F7028327C0
:1046C000C4FBB347F702232CF4FA8327C4FC13F787
:1046D00007109307F00F63F5E700832784FB19A801
:1046E000032784FB8327C4FC93F7F703850786071A
:1046F000B357F7023E85F6406644256182803971E2
:1047000006DE22DC80002326A4FC2324B4FCFD5713
:104710002326F4FEB707008093C7F7FF2324F4FE97
:10472000930730042322F4FEADA08326C4FC832724
:1047300044FE13975700B70701209387C75FBA97C6
:10474000BE853685A13B2320A4FE032704FEFD572A
:10475000630CF702032704FE832784FC1D8F935705
:10476000F7413D8FB307F740232EF4FC0327C4FD28
:10477000832784FE635AF700832744FE2326F4FE32
:104780008327C4FD2324F4FE832744FEFD17232240
:10479000F4FE832744FEE3DA07F88327C4FE3E8550
:1047A000F250625421618280797106D622D40018B9
:1047B000232EA4FC232CB4FC232AC4FC8327C4FD91
:1047C0009C4313F787FF8327C4FD98C38327C4FD49
:1047D0009843832744FD9C4B9D8B5D8F8327C4FDAD
:1047E00098C38327C4FD9C4313F7F7C08327C4FDF8
:1047F00098C38327C4FD9843832744FDDC4B92076D
:1048000093F7073F5D8F8327C4FD98C38327C4FDBB
:104810009843FD779387F73F7D8F8327C4FD98C327
:104820008327C4FD9843832744FD9C4F9396A7009C
:104830008567938707C0F58F5D8F8327C4FD98C375
:10484000832744FDDC4F63DB0702832784FD9C4301
:1048500013E70710832784FD98C3832784FD9C43B7
:1048600013F707FC832784FD98C3832784FD9C43AB
:1048700013E71700832784FD98C32DA8832784FDA1
:104880009C4313F7F7EF832784FD98C3832784FDA8
:104890009C4313F707FC832784FD98C3832784FD7B
:1048A0009843832744FDDC4F93F7F7035D8F8327FD
:1048B00084FD98C38327C4FD9843B707FCFFFD1709
:1048C0007D8F8327C4FD98C3930704FE3E868545EC
:1048D000B71700801385C7ABEFD0AFCA832604FE9D
:1048E000032744FE91450146B387B6003E85333524
:1048F000D5003308C700330705013A882324F4FEA6
:10490000232604FF19A8930704FE3E868545B717A2
:1049100000801385C7ABEFD0CFC6832704FE0328E2
:1049200044FE0327C4FEC286636BD7000327C4FE80
:10493000C286E31AD7FC032784FEE376F7FC010066
:104940008327C4FD9C43E3DD07FE0100B2502254DF
:10495000456182805D7186C6A2C48008232EA4FAB8
:10496000232CB4FA0325C4FBEFF05FA92326A4FE91
:104970000325C4FBEFF0FFA62324A4FE0325C4FBFC
:10498000EFF03FAD2322A4FE0325C4FBEFF01FAAE6
:104990002320A4FEEFF05FAE232EA4FC0327C4FD6A
:1049A000832744FEBA97232CF4FC0327C4FD8327F6
:1049B00004FEBA97232AF4FC832784FD9843C16739
:1049C000F98F91CB832784FD9843C177FD177D8FA5
:1049D000832784FD98C3832784FD9843B70702008B
:1049E000F98F81C78327C4FE19A0832784FE3E85E3
:1049F000EF1080582328A4FC032704FDBA878607FC
:104A0000BA9713D7F7410D8BBA9789873E878327CB
:104A100084FB63CBE702032704FDBA878A07BA97B2
:104A200013D7F7410D8BBA9789873E87832784FB7D
:104A3000634CF700832784FD9843B70704005D8F1C
:104A4000832784FD98C3B1A0832584FB032504FD3F
:104A50007D312326A4FC0327C4FCFD576302F70223
:104A60008327C4FC13975700B70701209387C75FBC
:104A7000BA973E86832544FD032584FD353311A86E
:104A8000832784FD9843B70704005D8F832784FD47
:104A900098C3832784FD9843C1675D8F832784FD76
:104AA00098C30325C4FBEFF09FAEAA873E85B640AE
:104AB000264461618280411122C60008B787001038
:104AC0003E85324441018280797106D622D4001895
:104AD000232EA4FC232CB4FCF93FAA872326F4FE42
:104AE000032784FD8327C4FEBA979C433E85B250BA
:104AF000225445618280797106D622D40018232E73
:104B0000A4FC232CB4FC232AC4FC7537AA872326D3
:104B1000F4FE032784FD8327C4FEBA973E878327CC
:104B200044FD1CC33E85B250225445618280011170
:104B300022CE00102326A4FE0327C4FE9387018201
:104B40006315F7009387C18125A00327C4FE9387CF
:104B500041826315F7009387C18119A80327C4FE1A
:104B6000938781826315F7009387C18111A08147E4
:104B70003E85724405618280011122CE00102326F9
:104B8000A4FE0327C4FE938701826314F700D9476C
:104B900015A00327C4FE938741826314F700CD4715
:104BA00011A80327C4FE938781826314F700D547B9
:104BB00011A081473E85724405618280011122CE99
:104BC00000102326A4FE0327C4FE938701826317E7
:104BD000F700B7170120938787E81DA80327C4FEB5
:104BE000938741826317F700B7170120938707E97E
:104BF00005A00327C4FE938781826317F700B717C8
:104C000001209387C7E929A0B7170120938747EAB6
:104C10003E85724405618280011106CE22CC0010CF
:104C20002326A4FE2324B4FE0325C4FE413FAA8705
:104C3000832584FE3E85EF40906EAA8799E38547E1
:104C400011A081473E85F2406244056182807971FE
:104C500006D622D40018232EA4FC0325C4FD293F28
:104C60002326A4FE0325C4FDD9352324A4FE8327CF
:104C700084FE89CF8325C4FE032584FEEF10804384
:104C80008325C4FE032584FEEF10C0460100B25008
:104C9000225445618280797106D622D40018232ED1
:104CA000A4FC0325C4FDC93D2326A4FE0325C4FDA1
:104CB000BD3D2324A4FE832784FE81CB05468325A6
:104CC000C4FE032584FEEF10E0460100B2502254DA
:104CD00045618280797106D622D40018232EA4FC67
:104CE0000325C4FD513D2326A4FE0325C4FD8135C3
:104CF0002324A4FE832784FE81CB01468325C4FEA2
:104D0000032584FEEF1000430100B2502254456198
:104D10008280797106D622D40018232EA4FC0325A4
:104D2000C4FD993D2326A4FE0325C4FD0935232493
:104D3000A4FE832784FE99C78325C4FE032584FE31
:104D4000EF10C0450100B25022544561828001112C
:104D500022CE00102326A4FE0327C4FE9387C18120
:104D60006315F700B727011011A081473E857244F3
:104D700005618280011122CE00102326A4FE0327A4
:104D8000C4FE9387C1816317F700B707008093873C
:104D9000074711A081473E85724405618280011159
:104DA00022CE00102326A4FE2324B4FE0327C4FE33
:104DB0009387C1816317F700832784FE99E3A14796
:104DC00015AE0327C4FE9387C1816319F70003273B
:104DD00084FE85476314F700A54729AE0327C4FE68
:104DE0009387C1816319F700032784FE8947631401
:104DF000F700A94701A60327C4FE9387C181631961
:104E0000F700032784FE8D476314F700AD47DDA448
:104E10000327C4FE9387C1816319F700032784FE2B
:104E200091476314F700B147F1A40327C4FE9387A9
:104E3000C1816319F700032784FE95476314F700C7
:104E4000B5474DAC0327C4FE9387C1816319F700B2
:104E5000032784FE99476314F700B94761AC032721
:104E6000C4FE9387C1816319F700032784FE9D4721
:104E70006314F700BD47BDAC0327C4FE9387C1810F
:104E80006319F700032784FEA1476314F700C147A5
:104E900095A40327C4FE9387C1816319F7000327F4
:104EA00084FEA5476314F700C547A9A40327C4FEE1
:104EB0009387C1816319F700032784FEA947631410
:104EC000F700C94705AC0327C4FE9387C181631966
:104ED000F700032784FEAD476314F700CD4719ACF4
:104EE0000327C4FE9387C1816319F700032784FE5B
:104EF000B1476314F700D147F5AA0327C4FE93878F
:104F0000C1816319F700032784FEB5476314F700D6
:104F1000D547CDA20327C4FE9387C1816319F7004B
:104F2000032784FEB9476314F700D947E1A203279A
:104F3000C4FE9387C1816319F700032784FEBD4730
:104F40006314F700DD477DA20327C4FE9387C18168
:104F50006319F700032784FEC1476314F700E14794
:104F600051AA0327C4FE9387C1816319F700032761
:104F700084FEC5476314F700E547ADAA0327C4FEC6
:104F80009387C1816319F700032784FEC94763141F
:104F9000F700E94785A20327C4FE9387C1816319FF
:104FA000F700032784FECD476314F700ED4799A26D
:104FB0000327C4FE9387C1816319F700032784FE8A
:104FC000D1476314F700F14735A20327C4FE938746
:104FD000C1816319F700032784FED5476314F700E6
:104FE000F54709AA0327C4FE9387C1816319F70017
:104FF000032784FED9476314F700F947E5A8032780
:10500000C4FE9387C1816319F700032784FEDD473F
:105010006314F700FD47F9A80327C4FE9387C181F5
:10502000631AF700032784FEE1476315F70093072F
:105030000002C9A00327C4FE9387C181631AF70049
:10504000032784FEE5476315F700930710025DA070
:105050000327C4FE9387C181631AF700032784FEE8
:10506000E9476315F7009307200269A00327C4FEF0
:105070009387C181631AF700032784FEED47631508
:10508000F70093073002BDA00327C4FE9387C181B8
:10509000631AF700032784FEF1476315F7009307AF
:1050A000400289A80327C4FE9387C1816319F700D2
:1050B000032784FEF5476314F700ED4725A803276F
:1050C000C4FE9387C1816319F700032784FEF94763
:1050D0006314F700F14739A80327C4FE9387C18101
:1050E0006319F700032784FEFD476314F700F547B3
:1050F00011A081473E85724405618280797106D690
:1051000022D40018232EA4FC232CB4FC0325C4FDB8
:10511000EFF0FFC3AA872326F4FE8327C4FE91077E
:105120009843832784FD8326C4FE9106D98F9CC2B1
:1051300081473E85B250225445618280797106D6FE
:1051400022D40018232EA4FC232CB4FC0325C4FD78
:10515000EFF0FFBFAA872326F4FE8327C4FE910742
:105160009C43032784FD1347F7FFBA860327C4FE39
:105170001107F58F1CC381473E85B250225445610B
:105180008280797106D622D40018232EA4FC032530
:10519000C4FDEFF0DFBBAA872326F4FE8327C4FEFD
:1051A0009C433E85B250225445618280797106D677
:1051B00022D40018232EA4FC0325C4FDEFF03FB930
:1051C000AA872326F4FE8327C4FEB1079C433E85AD
:1051D000B250225445618280797106D622D40018DB
:1051E000232EA4FC232CB4FC0325C4FDEFF03FB612
:1051F000AA872326F4FE8327C4FEA1079C43032726
:1052000084FD1347F7FFBA860327C4FE2107F58FF5
:105210001CC381473E85B25022544561828079711A
:1052200006D622D40018232EA4FC232CB4FC03257C
:10523000C4FDEFF0DFB1AA872326F4FE8327C4FE66
:10524000A1079843832784FD8326C4FEA106D98F36
:105250009CC281473E85B25022544561828079715B
:1052600006D622D40018232EA4FC232CB4FC03253C
:10527000C4FDEFF0DFADAA872326F4FE8327C4FE2A
:10528000B1079843832784FD8326C4FEB106D98FD6
:105290009CC281473E85B25022544561828079711B
:1052A00006D622D40018232EA4FC232CB4FC0325FC
:1052B000C4FDEFF0DFA9AA872326F4FE8327C4FEEE
:1052C000B1079C43032784FD1347F7FFBA860327E2
:1052D000C4FE3107F58F1CC381473E85B25022546E
:1052E00045618280797106D622D40018232EA4FC51
:1052F000232CB4FC0325C4FDEFF07FA5AA87232649
:10530000F4FE8327C4FEB1079843832784FD8326D8
:10531000C4FEB106B98F9CC281473E85B25022546B
:1053200045618280797106D622D40018232EA4FC10
:10533000232CB4FC232AC4FC0325C4FDEFF03FA1B9
:10534000AA872326F4FE8327C4FE9387C7039843C6
:10535000832784FD8326C4FE9386C603D98F9CC20F
:105360008327C4FE938787039843832744FD8326BE
:10537000C4FE93868603D98F9CC281473E85B25076
:10538000225445618280797106D622D40018232EDA
:10539000A4FC232CB4FC0325C4FDEFF05F9BAA877B
:1053A0002326F4FE8327C4FE938787039C430327A9
:1053B00084FD1347F7FFBA860327C4FE130787034C
:1053C000F58F1CC381473E85B250225445618280CF
:1053D000797106D622D40018232EA4FC232CB4FC09
:1053E000232AC4FC0325C4FDEFF07F96AA87232659
:1053F000F4FE032744FD9D4763E9E71C832744FD32
:1054000013972700B71701209387C7EBBA979C43E0
:1054100082878327C4FEE1079C43032784FD13474B
:10542000F7FFBA860327C4FE6107F58F1CC38327E5
:10543000C4FE938707029C43032784FD1347F7FFAD
:10544000BA860327C4FE13070702F58F1CC3832700
:10545000C4FE938787029C43032784FD1347F7FF0D
:10546000BA860327C4FE13078702F58F1CC3832760
:10547000C4FE938707039C43032784FD1347F7FF6C
:10548000BA860327C4FE13070703F58F1CC335AA8A
:105490008327C4FEE1079843832784FD8326C4FE47
:1054A000E106D98F9CC215A28327C4FE9387070209
:1054B0009843832784FD8326C4FE93860602D98FF2
:1054C0009CC221A28327C4FEE1079843832784FD61
:1054D0008326C4FEE106D98F9CC28327C4FE93872E
:1054E00007029843832784FD8326C4FE9386060221
:1054F000D98F9CC2D9A88327C4FE9387870298437B
:10550000832784FD8326C4FE93868602D98F9CC29E
:105510006DA88327C4FE938707039843832784FDE0
:105520008326C4FE93860603D98F9CC279A883275D
:10553000C4FE938787029843832784FD8326C4FE95
:1055400093868602D98F9CC28327C4FE9387070364
:105550009843832784FD8326C4FE93860603D98F50
:105560009CC2A5A08327C4FEE1079843832784FD3E
:105570008326C4FEE106D98F9CC28327C4FE93878D
:1055800007029843832784FD8326C4FE9386060280
:10559000D98F9CC28327C4FE9387870298438327B1
:1055A00084FD8326C4FE93868602D98F9CC28327FE
:1055B000C4FE938707039843832784FD8326C4FE94
:1055C00093860603D98F9CC2010081473E85B25065
:1055D000225445618280797106D622D40018232E88
:1055E000A4FC232CB4FC232AC4FC0325C4FDEFF047
:1055F0000FF6AA872326F4FE032744FD9D4763EA9E
:10560000E714832744FD13972700B71701209387DA
:10561000C7EDBA979C4382878327C4FEF10798435E
:10562000832784FD8326C4FEF106D98F9CC215A270
:105630008327C4FE938747029843832784FD8326EC
:10564000C4FE93864602D98F9CC221A28327C4FE42
:10565000F1079843832784FD8326C4FEF106D98F82
:105660009CC28327C4FE938747029843832784FD07
:105670008326C4FE93864602D98F9CC2D9A883276D
:10568000C4FE9387C7029843832784FD8326C4FE04
:105690009386C602D98F9CC26DA88327C4FE9387C8
:1056A00047039843832784FD8326C4FE93864603DD
:1056B000D98F9CC279A88327C4FE9387C7029843D9
:1056C000832784FD8326C4FE9386C602D98F9CC29D
:1056D0008327C4FE938747039843832784FD83264B
:1056E000C4FE93864603D98F9CC2A5A08327C4FE1F
:1056F000F1079843832784FD8326C4FEF106D98FE2
:105700009CC28327C4FE938747029843832784FD66
:105710008326C4FE93864602D98F9CC28327C4FE8B
:105720009387C7029843832784FD8326C4FE93860C
:10573000C602D98F9CC28327C4FE93874703984330
:10574000832784FD8326C4FE93864603D98F9CC29B
:10575000010081473E85B25022544561828001118B
:1057600006CE22CC00102326A4FE0325C4FEEFF0B3
:105770006FE0AA873E85F2406244056182807971BC
:1057800006D622D40018232EA4FC232CB4FC832597
:1057900084FD0325C4FDEFF08FE02326A4FE8327BC
:1057A000C4FE3E85B250225445618280011122CE52
:1057B00000102326A4FE0327C4FEB717008093879A
:1057C00087A46315F700B737011029A80327C4FE83
:1057D000B7170080938787A66315F700B7370210C5
:1057E00011A081473E85724405618280011122CE5D
:1057F00000102326A4FE0327C4FEB717008093875A
:1058000087A46317F700B70700809387074739A875
:105810000327C4FEB7170080938787A66317F70096
:10582000B70700809387074711A081473E857244E0
:1058300005618280011122CE00102326A4FE0327D9
:10584000C4FEB7170080938787A46314F7008D47C1
:1058500021A80327C4FEB7170080938787A6631487
:10586000F700914711A081473E857244056182800F
:10587000011122CE00102326A4FE0327C4FEB71771
:105880000080938787A46317F700B717008093877A
:1058900007AA39A80327C4FEB7170080938787A6F5
:1058A0006317F700B7170080938707AA11A08147F5
:1058B0003E85724405618280011122CE00102326AC
:1058C000A4FE0327C4FEB7170080938787A463153F
:1058D000F7009387C18129A80327C4FEB71700806A
:1058E000938787A66315F7009387C18111A081472D
:1058F0003E85724405618280011122CE001023266C
:10590000A4FE0327C4FEB7170080938787A46314FF
:10591000F700814721A80327C4FEB71700809387AB
:1059200087A66314F700814711A081473E85724422
:1059300005618280011122CE00102326A4FE0327D8
:10594000C4FEB7170080938787A46315F700B707D5
:10595000030029A80327C4FEB7170080938787A6F2
:105960006315F700B707840011A081473E85724494
:1059700005618280011106CE22CC00102326A4FEF0
:105980000325C4FEA535AA873E85F2406244056121
:105990008280011106CE22CC00102326A4FE03250E
:1059A000C4FE493DAA873E85F2406244056182807B
:1059B000797106D622D40018232EA4FC0325C4FD39
:1059C000EFF0DFDEAA872326F4FE8327C4FEC1079B
:1059D0009C430327C4FE410793E717001CC381477C
:1059E0003E85B250225445618280797106D622D418
:1059F0000018232EA4FC0325C4FDEFF03FDBAA878B
:105A00002326F4FE8327C4FEC1079C430327C4FE5C
:105A10004107F99B1CC381473E85B2502254456122
:105A20008280797106D622D40018232EA4FC032587
:105A3000C4FDEFF0BFD7AA872326F4FE8327C4FE58
:105A4000C1079C430327C4FE410793E727001CC3FB
:105A500081473E85B250225445618280797106D6D5
:105A600022D40018232EA4FC0325C4FDEFF01FD47C
:105A7000AA872326F4FE8327C4FEC1079C4303277D
:105A8000C4FE4107F59B1CC381473E85B25022549A
:105A900045618280797106D622D40018232EA4FC99
:105AA0000325C4FDEFF09FD0AA872326F4FE8327A9
:105AB000C4FE9C43FD8393F7F70F3E85B2502254FA
:105AC00045618280797106D622D40018232EA4FC69
:105AD000232CB4FC0325C4FDEFF05FCDAA87232659
:105AE000F4FE8327C4FEA1079843832784FD939681
:105AF0000701B7070700F58F8326C4FEA106D98FDB
:105B00009CC281473E85B2502254456182807971A2
:105B100006D622D40018232EA4FC0325C4FDEFF0E2
:105B2000FFC8AA872326F4FE8327C4FEA1079C434F
:105B3000C1839D8B3E85B25022544561828079712C
:105B400006D622D40018232EA4FC232CB4FC032553
:105B5000C4FDEFF0BFC5AA872326F4FE8327C4FE49
:105B6000B1079843832784FD93960701B707070081
:105B7000F58F8326C4FEB106D98F9CC281473E852E
:105B8000B250225445618280797106D622D4001821
:105B9000232EA4FC0325C4FDEFF05FC1AA872326B2
